:100000000C9463000C948B000C948B000C948B006C
:100010000C948B000C948B000C948B000C948B0034
:100020000C948B000C948B000C948B000C948B0024
:100030000C948B000C948B000C948B000C948B0014
:100040000C9478070C948B000C9446070C942007B2
:100050000C948B000C948B000C948B000C948B00F4
:100060000C948B000C948B006364696E6F707375D5
:1000700078585B000000000800020100000304073C
:100080000000000000000000000000002500280023
:100090002B0000000000240027002A0004040404B0
:1000A0000404040402020202020203030303030322
:1000B00001020408102040800102040810200102FF
:1000C00004081020590811241FBECFEFD8E0DEBF6E
:1000D000CDBF11E0A0E0B1E0EAEDF4E202C005908E
:1000E0000D92A634B107D9F722E0A6E4B1E001C031
:1000F0001D92A13AB207E1F710E0C3E6D0E004C0D8
:100100002197FE010E94F50DC236D107C9F70E9462
:1001100091080C946B120C94000090E0FC01E055E7
:10012000FF4F249184569F4FFC018491882399F0BE
:1001300090E0880F991FFC01EE56FF4FA591B491F6
:10014000FC01E857FF4F859194918FB7F894EC919B
:10015000E22BEC938FBF0895AF92BF92CF92DF92C4
:10016000EF92FF920F931F93CF93DF936C017B016C
:100170008B01040F151FEB015E01AE18BF08C017FD
:10018000D10759F06991D601ED91FC910190F08170
:10019000E02DC6010995892B79F7C501DF91CF9133
:1001A0001F910F91FF90EF90DF90CF90BF90AF9095
:1001B0000895FC01538D448D252F30E0842F90E06D
:1001C000821B930B541710F0CF9608950197089552
:1001D000FC01918D828D981761F0A28DAE0FBF2F1B
:1001E000B11D5D968C91928D9F5F9F73928F90E071
:1001F00008958FEF9FEF0895FC01918D828D9817E0
:1002000031F0828DE80FF11D858D90E008958FEF1C
:100210009FEF0895FC01918D228D892F90E0805CE5
:100220009F4F821B91098F739927089588E791E06A
:100230000E940A0121E0892B09F420E0822F089511
:1002400080E090E0892B29F00E94160181110C9426
:1002500000000895FC01A48DA80FB92FB11DA35A69
:10026000BF4F2C91848D90E001968F739927848FD6
:10027000A689B7892C93A089B1898C9183708064F9
:100280008C93938D848D981306C00288F389E02D9A
:1002900080818F7D80830895EF92FF920F931F934B
:1002A000CF93DF93EC0181E0888F9B8D8C8D981329
:1002B0001AC0E889F989808185FF15C09FB7F89435
:1002C000EE89FF896083E889F98980818370806481
:1002D00080839FBF81E090E0DF91CF911F910F91CC
:1002E000FF90EF900895F62E0B8D10E00F5F1F4FDB
:1002F0000F731127E02E8C8D8E110CC00FB607FCEA
:10030000FACFE889F989808185FFF5CFCE010E9477
:100310002A01F1CFEB8DEC0FFD2FF11DE35AFF4FBA
:10032000F0829FB7F8940B8FEA89FB898081806205
:10033000CFCFCF93DF93EC01888D8823B9F0AA89C2
:10034000BB89E889F9898C9185FD03C0808186FD90
:100350000DC00FB607FCF7CF8C9185FFF2CF8081DF
:1003600085FFEDCFCE010E942A01E9CFDF91CF9129
:10037000089590E0FC01EC58FF4F2491FC01E055FA
:10038000FF4F3491FC01E456FF4FE491EE23C9F096
:10039000222339F0233001F1A8F4213019F1223061
:1003A00029F1F0E0EE0FFF1FE857FF4FA591B49140
:1003B0008FB7F894EC91611126C030953E233C93A1
:1003C0008FBF08952730A9F02830C9F0243049F7AD
:1003D000809180008F7D03C0809180008F77809313
:1003E0008000DFCF84B58F7784BDDBCF84B58F7D70
:1003F000FBCF8091B0008F778093B000D2CF8091F7
:10040000B0008F7DF9CF3E2BDACF2FB7F8946091F3
:100410004701709148018091490190914A012FBF95
:100420000895CF93DF93FC012781222329F1EC016A
:1004300080850E948D0089850E948D008F81843087
:1004400011F0883099F48A850E948D008B850E9476
:100450008D008FA58F3F81F00E948D006EA581E0F9
:1004600068278FA5DF91CF910C94B901833011F0EB
:10047000863079F78A85EBCFDF91CF910895CF93BE
:10048000DF93FC0127812223A1F0EC010190F08190
:10049000E02D0284F385E02D60E009958FA58F3F64
:1004A00041F00E948D006EA58FA5DF91CF910C9435
:1004B000B901DF91CF910895DC01ED91FC91228586
:1004C00033854770552766277727415051096109C1
:1004D0007109473051056105710560F4FA01ED5865
:1004E000FD4F0C94F50D7D027F028102830285028F
:1004F0008702890261E0F901099465E0FCCF64E0BC
:10050000FACF66E0F8CF62E0F6CF6AE0F4CF68E0B9
:10051000F2CF69E0F0CFCF93DF93EC01CB01BA01CA
:1005200026E030E040E050E00E94D60D62307105D8
:100530008105910589F16CF46115710581059105BD
:10054000D1F06130710581059105F9F0DF91CF910E
:100550000895643071058105910561F124F16530DC
:1005600071058105910591F7E881F9810284F38590
:10057000E02D66E006C0E881F9810284F385E02D74
:1005800064E0CE01DF91CF910994E881F981028482
:10059000F385E02D65E0F5CFE881F9810284F385EC
:1005A000E02D61E0EECFE881F9810284F385E02D52
:1005B00063E0E7CFE881F9810284F385E02D62E012
:1005C000E0CFDC01ED91FC910284F385E02D4370D6
:1005D000552766277727423051056105710571F06F
:1005E000433051056105710559F0413051056105F0
:1005F000710511F065E0099466E0FDCF6AE0FBCF7C
:1006000069E0F9CFCF93DF93EC01CB01BA0123E08E
:1006100030E040E050E00E94D60D61307105810568
:10062000910599F06230710581059105A9F0672B5C
:10063000682B692BC1F4E881F9810284F385E02DF0
:1006400064E0CE01DF91CF910994E881F9810284C1
:10065000F385E02D61E0F5CFE881F9810284F3852F
:10066000E02D62E0EECFDF91CF910895DC01ED91B6
:10067000FC910284F385E02D437055276627772788
:10068000423051056105710571F043305105610536
:10069000710559F0413051056105710511F062E0B5
:1006A000099463E0FDCF61E0FBCF60E0F9CFCF9329
:1006B000DF93EC01E881F9810284F385E02D8A81E2
:1006C00060E0811162E0CE010995E881F981028440
:1006D000F385E02D8A8161E0811163E0CE01099507
:1006E0008CA59DA58230910538F0880F991F880F41
:1006F000991F05970197F1F7E881F9810284F38545
:10070000E02D8A8160E0811162E0CE01DF91CF911E
:100710000994CF93DF93EC0120E030E0A901688DCC
:10072000798D8A8D9B8D0E94E70C18162CF4E8A910
:10073000F9A9DF91CF910994EAA9FBA9FACFCF9249
:10074000DF92EF92FF920F931F93CF93DF93DC0121
:100750001796CC91C43039F0C83059F1C33019F034
:10076000C63049F1C2E08C01085F1F4FF12CE12C2B
:10077000C62ED12CD1E0F8016481C6010E2C02C036
:10078000959587950A94E2F780FD6D270F5F1F4FBF
:1007900080810E94B901BFEFEB1AFB0AEC1658F3F7
:1007A000DF91CF911F910F91FF90EF90DF90CF904D
:1007B0000895C4E0D8CFC3E0D6CFDC011796EC9102
:1007C0001797E93008F038C0F0E0E751FC4F0C947F
:1007D000F50DF203F803FE0304040A041C041004DC
:1007E0001C041604ED91FC910684F785E02D099414
:1007F000ED91FC910088F189E02DF9CFED91FC910C
:100800000288F389E02DF3CFED91FC910488F589FE
:10081000E02DEDCFED91FC910688F789E02DE7CF33
:10082000ED91FC91008CF18DE02DE1CFED91FC91EB
:10083000028CF38DE02DDBCF08954F925F926F9283
:100840007F928F929F92AF92BF92CF92DF92EF9260
:10085000FF920F931F93CF93DF93EC01CC88DD8839
:10086000EE88FF8888899989AA89BB89C81AD90A1C
:10087000EA0AFB0A688D798D8A8D9B8D9B01AC01FC
:100880000E94EC0C4B015C0168A179A18AA19BA19B
:100890009B01AC010E941C0B9B01AC01C501B40182
:1008A0000E948D0B0E94FF0BC114D104E104F104DE
:1008B00009F0B6C062307105810591050CF0D0C019
:1008C0001B821C821D821E82188E198E1A8E1B8E10
:1008D0001CAA1DAA1EAA1FAAC12CD12C7601C701D1
:1008E000B601DF91CF911F910F91FF90EF90DF90B4
:1008F000CF90BF90AF909F908F907F906F905F90C0
:100900004F9008951016110612061306B4F46C15D4
:100910007D058E059F051CF42A812111A1C09B0134
:10092000AC0188279927DC01821B930BA40BB50B24
:100930008CAB9DABAEABBFAB93C0011511052105D0
:10094000310509F48DC06C157D058E059F050CF0F1
:1009500087C08A81882309F483C03095209510953B
:1009600001951F4F2F4F3F4F0CAB1DAB2EAB3FAB35
:1009700077C0011511052105310509F471C08824DE
:10098000992454018C189D08AE08BF086815790594
:100990008A059B050CF064C08A81811161C0DDCF9E
:1009A000CCACDDACEEACFFACA7019601C701B60143
:1009B0000E941C0B2B013C01C501B4010E94370CA5
:1009C00020E030E040E850E40E94EC0C20E030E011
:1009D00040E85FE30E941C0B9B01AC01C301B20124
:1009E0000E948D0B9B01AC01C701B6010E941B0B3D
:1009F0003B016C01FE01E05CFF4FE080F180028171
:100A000013819701A8010E94E70C181614F47301D2
:100A10008601C701D8018CAF9DAFAEAFBFAF3AC062
:100A20000CA91DA92EA93FA91C141D041E041F04F6
:100A30000CF468CF10161106120613060CF099CFAD
:100A40000027112798010C191D092E093F0960176D
:100A50007107820793070CF062CF2A8121115FCFC3
:100A60008CA89DA8AEA8BFA881149104A104B104CC
:100A700009F096CF88AD99ADAAADBBAD8CAF9DAF57
:100A8000AEAFBFAF81E01C141D041E041F040CF0A8
:100A900080E08A833FEF831A930AA30AB30A8CAAE1
:100AA0009DAAAEAABFAA8CAC9DACAEACBFACC50132
:100AB000B4010E94060C6B017C01CB82DC82ED82CA
:100AC000FE82A501940160E074E284E799E40E944B
:100AD0008D0B688F798F8A8F9B8F2A812111FFCE92
:100AE0009058688F798F8A8F9B8FF9CECF92DF9243
:100AF000EF92FF92CF93DF93EC01688D798D8A8D11
:100B00009B8D9B01AC010E94EC0C6B017C0168A1E8
:100B100079A18AA19BA19B01AC010E941C0B9B01A6
:100B2000AC01C701B6010E948D0B0E94FF0B6CAB9C
:100B30007DAB8EAB9FABCE01DF91CF91FF90EF905D
:100B4000DF90CF900C941D04CF92DF92EF92FF9232
:100B5000CF93DF93EC018B819C81AD81BE81892B8A
:100B60008A2B8B2B09F453C03FB7F8948091740102
:100B700090917501A0917601B091770126B5A89B5F
:100B800005C02F3F19F00196A11DB11D3FBFBA2F1F
:100B9000A92F982F88276C017D01C20ED11CE11C62
:100BA000F11C42E0CC0CDD1CEE1CFF1C4A95D1F779
:100BB00088A599A5AAA5BBA5B701A601481B590BF5
:100BC0006A0B7B0B8B819C81AD81BE8148175907D5
:100BD0006A077B07E0F088899989AA89BB892A81FD
:100BE0002223B1F10196A11DB11D888B998BAA8B8F
:100BF000BB8B488959896A897B89CE010E94DD03B4
:100C0000C8A6D9A6EAA6FBA6CE010E941D0420E034
:100C100030E0A901688D798D8A8D9B8D0E94880BAB
:100C200081111AC081E0CC88DD88EE88FF88488970
:100C300059896A897B89C416D506E606F70609F440
:100C400080E0DF91CF91FF90EF90DF90CF900895FB
:100C50000197A109B109C9CF81E0F3CF0F931F9389
:100C6000FC01048915892689378904171507260789
:100C7000370741F0448B558B668B778B1F910F9113
:100C80000C941D041F910F9108950895FC0101908B
:100C90000020E9F73197AF01481B590BBC0188E7E9
:100CA00091E00C94AC008F929F92AF92BF920F9301
:100CB0001F93CF93DF93CDB7DEB7A1970FB6F8940C
:100CC000DEBF0FBECDBF19A2423008F44AE08E014C
:100CD0000F5D1F4F842E912CB12CA12CA5019401E6
:100CE0000E94B40DE62FB901CA01EA30F4F4E05DC8
:100CF000D801EE938D01232B242B252B79F790E03F
:100D000080E0109719F0CD010E944606A1960FB61B
:100D1000F894DEBF0FBECDBFDF91CF911F910F9131
:100D2000BF90AF909F908F900895E95CE1CF4F9274
:100D30005F926F927F928F929F92AF92BF92CF926B
:100D4000DF92EF92FF92CF93DF93EC016A017B0178
:100D500020E030E0A901CB01B6010E94880B87FF9B
:100D600004C0F7FAF094F7F8F09488A099A0AAA02C
:100D7000BBA0A7019601C501B4010E94880B88237E
:100D800009F44DC06CA97DA98EA99FA90E94370CBA
:100D90002B013C01A7019601C501B4010E948D0BF6
:100DA0009B01AC01C301B2010E94EC0C0E94FF0B3D
:100DB0006CAB7DAB8EAB9FABA701960160E070E0A2
:100DC00080E090E40E948D0B0E945F0D26E53EE0DE
:100DD0004DE25FE30E94EC0C20E034E244E759E48A
:100DE0000E94EC0C68AF79AF8AAF9BAFC8A2D9A2C2
:100DF000EAA2FBA2E881F9810084F185E02DCE0111
:100E0000DF91CF91FF90EF90DF90CF90BF90AF90A8
:100E10009F908F907F906F905F904F900994DF919B
:100E2000CF91FF90EF90DF90CF90BF90AF909F90C9
:100E30008F907F906F905F904F9008950C94970ED5
:100E40001F920F920FB60F9211242F933F934F933F
:100E50005F936F937F938F939F93AF93BF93EF9322
:100E6000FF9388E791E00E942A01FF91EF91BF91E3
:100E7000AF919F918F917F916F915F914F913F9132
:100E80002F910F900FBE0F901F9018951F920F92E9
:100E90000FB60F9211242F938F939F93EF93FF938D
:100EA000E0918801F09189018081E0918E01F091BB
:100EB0008F0182FD1BC09081809191018F5F8F73A4
:100EC00020919201821741F0E0919101F0E0E85801
:100ED000FE4F958F80939101FF91EF919F918F919C
:100EE0002F910F900FBE0F901F9018958081F4CF17
:100EF0001F920F920FB60F9211242F933F938F934F
:100F00009F93AF93BF938091470190914801A09127
:100F10004901B0914A013091460123E0230F2D375A
:100F200058F50196A11DB11D2093460180934701FC
:100F300090934801A0934901B0934A0180917401B4
:100F400090917501A0917601B09177010196A11D54
:100F5000B11D8093740190937501A0937601B093B5
:100F60007701BF91AF919F918F913F912F910F90FA
:100F70000FBE0F901F90189526E8230F0296A11D13
:100F8000B11DD2CFCF92DF92EF92FF920F931F93BA
:100F9000CF93DF93EC018AE091E09983888381E02D
:100FA0008F83188A198A1A8A1B8A1C8A1D8A1E8AAC
:100FB0001F8A188E198E1A8E1B8E1C8E1D8E1E8EE9
:100FC0001F8E18A219A21AA21BA2C12CD12C80E834
:100FD000E82E8FE3F82ECCA2DDA2EEA2FFA21B82A8
:100FE0001C821D821E8281E090E09DA78CA78FEF5E
:100FF0008FA718A619A61AA61BA66887498784E09A
:101000008A8785E08B871EA61CAA1DAA1EAA1FAA76
:1010100018AE19AE1AAE1BAE1CAE1DAE1EAE1FAE84
:101020008E01005C1F4FF801C082D182E282F38200
:101030001A821C861D861E861F86CE010E94110202
:10104000B701A601CE010E949706A70196016C8DFB
:101050007D8D8E8D9F8D0E94880B882309F1CC8E0B
:10106000DD8EEE8EFF8E80E094E2A4E7B9E4F80115
:1010700080839183A283B3838CA99DA9AEA9BFA9C4
:10108000181619061A061B065CF4CE01DF91CF91E3
:101090001F910F91FF90EF90DF90CF900C94760509
:1010A000DF91CF911F910F91FF90EF90DF90CF9044
:1010B0000895E8E7F1E01382128288EE93E0A0E061
:1010C000B0E084839583A683B7838AE291E091831D
:1010D000808385EC90E09587848784EC90E0978707
:1010E000868780EC90E0918B808B81EC90E0938BF5
:1010F000828B82EC90E0958B848B86EC90E0978BD2
:10110000868B118E128E138E148E43E062E089E579
:1011100092E00E94C20746E065E085E192E00C940F
:10112000C207CF93DF93CDB7DEB728970FB6F894F9
:10113000DEBF0FBECDBF789484B5826084BD84B518
:10114000816084BD85B5826085BD85B5816085BDC2
:1011500080916E00816080936E001092810080917A
:101160008100826080938100809181008160809302
:101170008100809180008160809380008091B10027
:1011800084608093B1008091B00081608093B00052
:1011900080917A00846080937A0080917A008260E6
:1011A00080937A0080917A00816080937A008091A8
:1011B0007A00806880937A001092C100E0918801E3
:1011C000F091890182E08083E0918401F0918501B2
:1011D0001082E0918601F09187018FEC808310925C
:1011E0009001E0918C01F0918D0186E08083E09187
:1011F0008A01F0918B01808180618083E0918A0176
:10120000F0918B01808188608083E0918A01F09168
:101210008B01808180688083E0918A01F0918B014D
:1012200080818F7D808320E030E040EA51E460914E
:1012300075027091760280917702909178020E94F7
:10124000880B882349F180E090E0A0EAB1E4809324
:10125000750290937602A0937702B093780280E0B3
:1012600090E5A3E4B7E48093990290939A02A09347
:101270009B02B0939C0280918D0290918E02A0916E
:101280008F02B0919002181619061A061B0624F454
:1012900089E592E00E94760540E050E060E272E469
:1012A00089E592E00E94970620E030E040EA51E4B0
:1012B0006091310270913202809133029091340238
:1012C0000E94880B882349F180E090E0A0EAB1E415
:1012D0008093310290933202A0933302B093340290
:1012E00080E090E5A3E4B7E4809355029093560222
:1012F000A0935702B09358028091490290914A02FC
:10130000A0914B02B0914C02181619061A061B0642
:1013100024F485E192E00E94760540E050E060E22E
:1013200072E485E192E00E9497060E9405026093B4
:1013300070017093710180937201909373019E010B
:101340002F5F3F4F49018E010B5F1F4F88E3E82E4F
:1013500081E0F82E9DE4C92E91E0D92E20E0A22E46
:1013600020E0B22E88E791E00E940A01892B09F45F
:10137000CAC088E791E00E94E800E0916B018A30E2
:1013800019F08D3009F0B3C0EE2309F459C0F0E034
:10139000E55BFE4F108280914B018A3509F053C006
:1013A0001092690210926A0210926B0210926C0203
:1013B00010926D0210926E0210926F0210927002E3
:1013C00010928D0210928E0210928F021092900253
:1013D00010925C0210925D0210925E0210925F0207
:1013E00010927102109272021092730210927402A3
:1013F00010922502109226021092270210922802C3
:101400001092290210922A0210922B0210922C02A2
:101410001092490210924A0210924B0210924C0212
:10142000109218021092190210921A0210921B02C6
:1014300010922D0210922E0210922F021092300262
:1014400010926B018FCF8D34D9F79F928F921F939B
:101450000F93FF92EF92DF92CF920E94200F0FB670
:10146000F894DEBF0FBECDBF029751F74D815E816C
:101470006F817885493251056105710524F048E294
:1014800050E060E070E0483D3FEF530763077307AB
:1014900024F448ED5FEF6FEF7FEF89E592E00E9463
:1014A0002E0649815A816B817C8149325105610543
:1014B000710524F048E250E060E070E0483D8FEFB5
:1014C00058076807780724F448ED5FEF6FEF7FEF68
:1014D00085E192E00E942E060E9405026093700151
:1014E000709371018093720190937301A9CFEF31D2
:1014F00008F0A6CF91E09E0F90936B01F0E0E55BC2
:10150000FE4F80832FCF0E940502409070015090C3
:1015100071016090720170907301641975098609F8
:10152000970961367A4E8105910570F040E050E0F0
:10153000BA0189E592E00E942E0640E050E0BA012F
:1015400085E192E00E942E0689E592E00E94A405C2
:1015500085E192E00E94A4050E94050240906C0182
:1015600050906D0160906E0170906F016419750963
:10157000860997096A3F71058105910508F44FC0F6
:101580000E94050260936C0170936D0180936E015F
:1015900090936F0180E491E00E94460640906902BA
:1015A00050906A0260906B0270906C024AE0C30136
:1015B000B20177FE0DC06DE288E791E00E944C0118
:1015C00066277727CB0164197509860997094AE0D0
:1015D0000E9453066CE288E791E00E944C01409023
:1015E00025025090260260902702709028024AE05F
:1015F000C301B20177FE0DC06DE288E791E00E9461
:101600004C0166277727CB0164197509860997096C
:101610004AE00E94530683E491E00E944606A1142A
:10162000B10409F49FCE0E941601882309F49ACED2
:101630000E94000097CE5058BB27AA270E94330B68
:101640000C94AD0C0E949F0C38F00E94A60C20F068
:1016500039F49F3F19F426F40C949C0C0EF4E09599
:10166000E7FB0C94960CE92F0E94BE0C58F3BA17B6
:10167000620773078407950720F079F4A6F50C94A8
:10168000E00C0EF4E0950B2EBA2FA02D0B01B90142
:1016900090010C01CA01A0011124FF27591B99F0E8
:1016A000593F50F4503E68F11A16F040A22F232FF4
:1016B000342F4427585FF3CF469537952795A79544
:1016C000F0405395C9F77EF41F16BA0B620B730BEB
:1016D000840BBAF09150A1F0FF0FBB1F661F771F5C
:1016E000881FC2F70EC0BA0F621F731F841F48F411
:1016F000879577956795B795F7959E3F08F0B0CF9A
:101700009395880F08F09927EE0F97958795089580
:101710000E94720C08F481E008950E94A10B0C94C1
:10172000AD0C0E94A60C58F00E949F0C40F029F4CA
:101730005F3F29F00C94960C51110C94E10C0C9421
:101740009C0C0E94BE0C68F39923B1F3552391F3CE
:10175000951B550BBB27AA2762177307840738F020
:101760009F5F5F4F220F331F441FAA1FA9F335D07D
:101770000E2E3AF0E0E832D091505040E695001C31
:10178000CAF72BD0FE2F29D0660F771F881FBB1FEB
:10179000261737074807AB07B0E809F0BB0B802DC9
:1017A000BF01FF2793585F4F3AF09E3F510578F0F5
:1017B0000C94960C0C94E10C5F3FE4F3983ED4F348
:1017C000869577956795B795F7959F5FC9F7880FC9
:1017D000911D9695879597F90895E1E0660F771F1B
:1017E000881FBB1F621773078407BA0720F0621BAC
:1017F000730B840BBA0BEE1F88F7E09508950E94D7
:10180000060C6894B1110C94E10C08950E94C60C6A
:1018100088F09F5798F0B92F9927B751B0F0E1F0B1
:10182000660F771F881F991F1AF0BA95C9F714C061
:10183000B13091F00E94E00CB1E008950C94E00CFE
:10184000672F782F8827B85F39F0B93FCCF386959A
:1018500077956795B395D9F73EF4909580957095F7
:1018600061957F4F8F4F9F4F0895E89409C097FB74
:101870003EF490958095709561957F4F8F4F9F4F67
:101880009923A9F0F92F96E9BB279395F6958795AB
:1018900077956795B795F111F8CFFAF4BB0F11F46E
:1018A00060FF1BC06F5F7F4F8F4F9F4F16C0882315
:1018B00011F096E911C0772321F09EE8872F762F4B
:1018C00005C0662371F096E8862F70E060E02AF08C
:1018D0009A95660F771F881FDAF7880F9695879578
:1018E00097F90895990F0008550FAA0BE0E8FEEF4D
:1018F00016161706E807F907C0F012161306E407D4
:10190000F50798F0621B730B840B950B39F40A26CC
:1019100061F0232B242B252B21F408950A2609F4AA
:10192000A140A6958FEF811D811D089597F99F67AE
:1019300080E870E060E008959FEF80EC0895002457
:101940000A941616170618060906089500240A9424
:1019500012161306140605060895092E0394000CAA
:1019600011F4882352F0BB0F40F4BF2B11F460FF39
:1019700004C06F5F7F4F8F4F9F4F089557FD905862
:10198000440F551F59F05F3F71F04795880F97FB43
:10199000991F61F09F3F79F08795089512161306FD
:1019A0001406551FF2CF4695F1DF08C0161617062C
:1019B0001806991FF1CF8695710561050894089561
:1019C000E894BB2766277727CB0197F908950E94F3
:1019D000720C08F48FEF08950E94FF0C0C94AD0C6C
:1019E0000E949F0C38F00E94A60C20F0952311F065
:1019F0000C94960C0C949C0C11240C94E10C0E94F9
:101A0000BE0C70F3959FC1F3950F50E0551F629F78
:101A1000F001729FBB27F00DB11D639FAA27F00D47
:101A2000B11DAA1F649F6627B00DA11D661F829F6E
:101A30002227B00DA11D621F739FB00DA11D621F53
:101A4000839FA00D611D221F749F3327A00D611D70
:101A5000231F849F600D211D822F762F6A2F112452
:101A60009F5750409AF0F1F088234AF0EE0FFF1F85
:101A7000BB1F661F771F881F91505040A9F79E3FDC
:101A8000510580F00C94960C0C94E10C5F3FE4F34C
:101A9000983ED4F3869577956795B795F795E79532
:101AA0009F5FC1F7FE2B880F911D9695879597F93B
:101AB000089519F416F40C949C0C0C949F0D0E943C
:101AC000C60CB8F39923C9F3B6F39F57550B87FF9C
:101AD0000E94AD0D0024A0E640EA90018058569582
:101AE000979528F4805C660F771F881F20F02617D3
:101AF0003707480730F4621B730B840B2029312908
:101B00004A2BA69517940794202531254A2758F784
:101B1000660F771F881F20F026173707480730F415
:101B2000620B730B840B200D311D411DA09581F7B5
:101B3000B901842F9158880F9695879508959F3FF6
:101B400031F0915020F4879577956795B795880F78
:101B5000911D9695879597F9089591505040660F7D
:101B6000771F881FD2F70895A1E21A2EAA1BBB1B6C
:101B7000FD010DC0AA1FBB1FEE1FFF1FA217B30759
:101B8000E407F50720F0A21BB30BE40BF50B661F6F
:101B9000771F881F991F1A9469F760957095809533
:101BA00090959B01AC01BD01CF010895052E97FBD7
:101BB0001EF400940E94ED0D57FD07D00E94B40D55
:101BC00007FC03D04EF40C94ED0D509540953095E4
:101BD00021953F4F4F4F5F4F089590958095709599
:101BE00061957F4F8F4F9F4F0895EE0FFF1F059018
:101BF000F491E02D09940F931F93CF93DF938230DC
:101C0000910510F482E090E0E0919F02F091A00233
:101C100030E020E0B0E0A0E0309799F421153105E4
:101C200009F44AC0281B390B24303105D8F58A81C4
:101C30009B816115710589F1FB0193838283FE010C
:101C400011C0408151810281138148175907E0F08A
:101C50004817590799F4109761F012960C93129750
:101C600013961C933296CF01DF91CF911F910F9164
:101C7000089500939F021093A002F4CF211531051F
:101C800051F04217530738F0A901DB019A01BD0159
:101C9000DF01F801C1CFEF01F9CF9093A00280934B
:101CA0009F02CDCFFE01E20FF31F8193919322504B
:101CB000310939832883D7CF20919D0230919E022C
:101CC000232B41F4209102013091030130939E02B5
:101CD00020939D02209100013091010121153105D1
:101CE00041F42DB73EB74091040150910501241BEA
:101CF000350BE0919D02F0919E02E217F307A0F4EC
:101D00002E1B3F0B2817390778F0AC014E5F5F4F51
:101D10002417350748F04E0F5F1F50939E024093E3
:101D20009D02819391939FCFF0E0E0E09CCFCF9311
:101D3000DF930097E9F0FC01329713821282A091A1
:101D40009F02B091A002ED0130E020E01097A1F4D5
:101D500020813181820F931F20919D0230919E023C
:101D60002817390709F061C0F0939E02E0939D02A5
:101D7000DF91CF910895EA01CE17DF07E8F54A8198
:101D80005B819E0141155105B1F7E901FB83EA83AF
:101D900049915991C40FD51FEC17FD0761F480815B
:101DA00091810296840F951FE9019983888382812E
:101DB00093819B838A83F0E0E0E012968D919C9161
:101DC00013970097B9F52D913C911197CD0102968B
:101DD000820F931F20919D0230919E022817390790
:101DE00039F6309751F51092A00210929F02B093ED
:101DF0009E02A0939D02BCCFD383C28340815181B8
:101E0000840F951FC817D90761F44E5F5F4F888113
:101E10009981480F591F518340838A819B81938305
:101E200082832115310509F0B0CFF093A002E09331
:101E30009F029ECFFD01DC01C0CF13821282D7CF5B
:101E4000AEE0B0E0E6E2FFE00C94441285E08C8363
:101E50008B899C899A838983AE01495E5F4F6D8926
:101E60007E89CE0101960E94C4102E96E2E00C9469
:101E7000601220FD09C0FC0123FD05C022FF02C045
:101E80007383628351834083089544FD17C046FDE8
:101E90001DC0DB01FC01AA0FBB1FEE1FFF1F10942A
:101EA000D1F76A0F7B1F8E1F9F1F660F771F881F3A
:101EB000991F620F711D811D911D089533E0660FFA
:101EC000771F881F991F3150D1F7F3CF34E0F7CF38
:101ED0000F931F93CF93DF938C01C8010E94DD11F4
:101EE000EC0197FD08C00E94C911892BB1F7B80118
:101EF000CE010E941912CE01DF91CF911F910F9157
:101F000008958F929F92AF92BF92EF92FF920F939C
:101F10001F93CF93DF938C01D62F7A01B22E0E94AC
:101F2000DD119C0133272B32310529F02D3231058B
:101F3000A9F46894B7F8D15061F480E0DF91CF91B3
:101F40001F910F91FF90EF90BF90AF909F908F9057
:101F50000895C8010E94DD1197FDEFCFCB2DCD7FF5
:101F60002B2D2073F9F48033E9F4AA24AA94AD0E42
:101F700089F0C8010E94DD1197FD0CC0282F2F7D2C
:101F8000283561F4C264D25029F0C8010E94DD11E5
:101F900097FF08C0812C912C54011BC0B6FE2BC0AA
:101FA000C260DA2D812C912C540120ED280F2830AD
:101FB00028F1C4FD09C02A3008F1C6FF05C02F7DF5
:101FC0003FEE320F3630C8F0B8010E941912C1FF3F
:101FD000B4CFC7FF08C0B094A09490948094811CA3
:101FE000911CA11CB11C2C2FB501A401C7010E949A
:101FF000390F81E0A3CFC261D4CF27504C2FC50148
:10200000B4010E94450F4B015C01C260D15009F33D
:10201000C8010E94DD1197FFC8CFD9CFA0E2B0E080
:10202000E4E1F0E10C9439125C01962E7A01CE01C4
:1020300001966C0180E2F60111928A95E9F7F501AB
:10204000B381890130E020E0712C812CA0E041E0D7
:1020500050E0F801B3FD8591B3FF8191982F8F0176
:10206000811107C010E000E0C801A096EDE00C94DB
:1020700055128E3519F42115310541F1A2171306B9
:102080004CF48D3549F18D3229F4811006C0882435
:1020900083941DC0882009F464C0E92FE695E69575
:1020A000E695EC0DFD2DF11D892F8770BA0101C059
:1020B000660F8A95EAF78081682B6083791651F064
:1020C000971510F49F5FE9CF9150E7CFA1E02F5F04
:1020D0003F4FBFCF812CFBCF882019F08E818062CB
:1020E0008E83AA2359F0F6019E012F5D3F4F808118
:1020F000809580833196E217F307C9F7882483948B
:10210000C5010E94DD1197FD16C0E82FE695E69502
:10211000E695EC0DFD2DF11D208130E0AC014770FE
:10212000552702C0359527954A95E2F720FD06C050
:10213000B5010E941912882069F094CFE114F104CE
:1021400029F0F7018083C70101967C019A94812CC4
:102150009110D6CFE114F10409F486CFF701108273
:1021600083CFE82FE695E695E695EC0DFD2DF11D64
:10217000982F9770BA0101C0660F9A95EAF790817F
:10218000692B6083782EA3CFB0E0A0E0EAECF0E109
:102190000C9437126C01EB015A01FC011782168274
:1021A000512CF601E380FE01E3FC8591E3FE819171
:1021B000182FEF018823E9F090E00E94C911892BC4
:1021C00021F0C6010E94680FECCF153241F4FE01E8
:1021D000E3FC1591E3FE1191EF01153269F4C6019C
:1021E0000E94DD1197FD8EC01817D9F2B6010E942A
:1021F0001912852D90E08AC000E01A3231F4E3FC18
:102200001591E3FE1191EF0101E0F12C20ED210F7A
:102210002A3048F101FF37C0FF2059F31836B1F1D9
:102220001C3609F43DC0112321F3612F70E088E6CC
:1022300090E00E94D211892BE1F2912C812C00FDBB
:1022400006C0F50180809180C50102965C011E36B2
:1022500079F5F6014681578170E060E0202FC401D6
:102260000E94390F9ECF02606F2D70E090E080E0F9
:1022700040E20E94450FF62EFE01E3FC1591E3FEBD
:102280001191EF01C3CFFF24FA94C8CFFE01E3FC04
:102290001591E3FE1191EF01183609F0C4CF0860E3
:1022A0000460FE01E3FC1591E3FE1191EF01BBCF49
:1022B0001336C1F401FD02C0FF24F394C6010E944D
:1022C000DD1197FD1FC08114910429F0F401808372
:1022D000C40101964C01FA94F110F0CF00FD61CFDA
:1022E00053945FCF1B35B9F49E01A4016F2DC60135
:1022F0000E940E10EC01892B89F7F601838180730F
:1023000009F477CF8FEF9FEF511073CFCDB7DEB7C2
:10231000EFE00C945312C6010E94680F97FDF2CFB4
:102320001F36A9F130F4143641F0193639F0006443
:1023300005C01337B9F01537D1F70062202FA4017B
:102340006F2DC6010E94810F8111C8CFD6CF811495
:10235000910429F0F4016082C40101964C01FA94C1
:10236000FF2071F0C6010E94DD113C0197FD08C0FD
:102370000E94C911892B59F3B601C3010E94191299
:102380008114910409F4AACFF4011082A7CF00614F
:10239000D5CF91110C943112803219F089508550AB
:1023A000C8F70895FC010590061621F00020D9F722
:1023B000C00108953197CF010895CF93DF93EC01C9
:1023C0002B8120FF1AC026FF0CC02F7B2B838E8110
:1023D0009F8101969F838E838A8190E0DF91CF91C8
:1023E000089522FF18C0E881F9818081082E000C31
:1023F000990B009729F420622B838FEF9FEFEECF8C
:102400003196F983E8832E813F812F5F3F4F3F83D1
:102410002E839927E3CFEA85FB85099597FFF3CFB4
:102420002B81019621F080E2822B8B83E6CF80E125
:10243000FBCFFB01238120FF11C026FD0FC08F3F82
:10244000980771F082832F7D206423832681378152
:102450002150310937832683992708958FEF9FEF05
:1024600008959927882708952F923F924F925F925F
:102470006F927F928F929F92AF92BF92CF92DF9294
:10248000EF92FF920F931F93CF93DF93CDB7DEB7F9
:10249000CA1BDB0B0FB6F894DEBF0FBECDBF09948D
:1024A0002A88398848885F846E847D848C849B84E4
:1024B000AA84B984C884DF80EE80FD800C811B81F2
:1024C000AA81B981CE0FD11D0FB6F894DEBF0FBE21
:0A24D000CDBFED010895F894FFCF91
:1024DA000000A1028000000000003F021102450630
:1024EA001E071D049F03DD038903570336030203F6
:1024FA00E1028B025C02000000004C01AC00D90032
:10250A0099010A01E800FC00256C642C256C640022
:06251A00502C000D0A0028
:00000001FF
